S01700004763634170706C69636174696F6E312E737265635B
S11300000C942A000C943F000C943F000C943F0085
S11300100C943F000C943F000C943F000C943F0060
S11300200C943F000C9426010C943F000C94E200C5
S11300300C943F000C943F000C943F000C943F0040
S11300400C943F000C943F000C943F000C943F0030
S11300500C943F0011241FBECFE5D8E0DEBFCDBF16
S113006010E0A0E6B0E0ECEDF2E002C005900D92E5
S1130070AC38B107D9F70E94AB000C946C010C9416
S1130080000088BBDF98DE98DD9A0000DD9881E2ED
S11300908A95F1F70000089588BBDF9ADE98DD9A0F
S11300A00000DD9881E28A95F1F7000008958FEF52
S11300B087BB8ABBDD9883EF91E00197F1F700C01D
S11300C0000088E30E9441008EE00E94410081E02C
S11300D00E94410083EF91E00197F1F700C0000016
S11300E086E00E9441000895CF93DF9300D000D0B2
S11300F0CDB7DEB790E8998390EC9A8394E99B831B
S113010094ED9C83FE01E60FF11D81509081890FCF
S11301100E94410081E28A95F1F700000F900F9050
S11301200F900F90DF91CF9108950F931F93CF936A
S1130130FC018081882359F08F01C0E00E944C00AB
S1130140CF5FF801EC0FF11D80818111F7CFCF91C2
S11301501F910F9108950E94570061E081E00E9471
S1130160740080E690E00E9495002FE38DE093E018
S1130170215080409040E1F700C0000084B38360C8
S113018084BB80E682BF81E083BF9DEF9DBD90E884
S11301909CBD1FBC8EBD85E089BF78940E9457002A
S11301A061E081E00E94740088E690E00E9495007E
S11301B02FE38DE093E0215080409040E1F700C0B0
S11301C00000ECCF1F920F920FB60F9211242F93C1
S11301D03F934F935F936F937F938F939F93AF93CB
S11301E0BF93EF93FF930E94570061E081E00E9468
S11301F0740082E790E00E94950062E081E00E9432
S113020074008BE790E00E9495002FE38DE093E06B
S1130210215080409040E1F700C00000789480E6CF
S113022082BF95B381E0892785BBFF91EF91BF9190
S1130230AF919F918F917F916F915F914F913F917A
S11302402F910F900FBE0F901F9018951F920F9231
S11302500FB60F9211242F933F934F935F936F9395
S11302607F938F939F93AF93BF93EF93FF930E94DA
S1130270570061E081E00E94740083E890E00E94EE
S1130280950062E081E00E9474008BE790E00E9498
S113029095002FE38DE093E0215080409040E1F7FA
S11302A000C0000078948DEF8DBD80E88CBD95B3BF
S11302B082E0892785BBFF91EF91BF91AF919F9118
S11302C08F917F916F915F914F913F912F910F90FB
S10F02D00FBE0F901F901895F894FFCFFC
S11302DC696E206D61696E00696E206D61696E20B6
S11302EC3200696E2074305F6F760068616E646CE6
S10F02FC657200696E2074315F6F76003B
S9030000FC
