S00D00004857355F332E73726563B1
S11300000C942A000C9434000C9434000C943400A6
S11300100C9434000C9434000C9434000C9434008C
S11300200C9434000C9434000C9434000C9434007C
S11300300C9434000C9434000C9434000C9434006C
S11300400C9434000C9434000C9434000C9434005C
S11300500C94340011241FBECFE5D8E0DEBFCDBF21
S11300600E9436000C944A000C94000081E088BB86
S11300708FEF84BB81BB1FBC87E08EBD1DBC1CBC45
S113008094E08CB585BB8DB582BB08B602FEF9CF72
S10B009098BFF7CFF894FFCFED
S9030000FC
