S01700004763634170706C69636174696F6E322E737265635A
S11300000C942A000C9447000C9447000C9447006D
S11300100C9447000C9447000C9447000C94470040
S11300200C9447000C9465010C9447000C94EE006A
S11300300C9447000C9447000C9447000C94470020
S11300400C9447000C9447000C9447000C94470010
S11300500C94470011241FBECFE5D8E0DEBFCDBF0E
S113006010E0A0E6B0E0E4E9F9E002C005900D92EA
S1130070A637B107D9F720E0A6E7B0E001C01D928A
S1130080A837B207E1F70E94B3000C94C8040C949B
S1130090000088BBDF98DE98DD9A0000DD9881E2DD
S11300A08A95F1F70000089588BBDF9ADE98DD9AFF
S11300B00000DD9881E28A95F1F7000008958FEF42
S11300C087BB8ABBDD9883EF91E00197F1F700C00D
S11300D0000088E30E9449008EE00E94490081E00C
S11300E00E94490083EF91E00197F1F700C00000FE
S11300F086E00E9449000895CF93DF9300D000D09A
S1130100CDB7DEB790E8998390EC9A8394E99B830A
S113011094ED9C83FE01E60FF11D81509081890FBF
S11301200E94490081E28A95F1F700000F900F9038
S11301300F900F90DF91CF9108950F931F93CF935A
S1130140FC018081882359F08F01C0E00E94540093
S1130150CF5FF801EC0FF11D80818111F7CFCF91B2
S11301601F910F9108950E945F0061E081E00E9459
S11301707C0080E690E00E949D002FE38DE093E0F8
S1130180215080409040E1F700C0000010927700B9
S11301901092760084B3836084BB80E682BF81E0E2
S11301A083BF9DEF9DBD90E89CBD1FBC8EBD85E0C7
S11301B089BF78940E945F0061E081E00E947C0026
S11301C088E690E00E949D002FE38DE093E02150AB
S11301D080409040E1F700C00000ECCF1F920F92E6
S11301E00FB60F9211240F931F932F933F934F93A6
S11301F05F936F937F938F939F93AF93BF93EF938B
S1130200FF93CF93DF9300D0CDB7DEB78091760014
S11302109091770001969093770080937600809177
S11302207600909177009F938F9382E790E09F935D
S11302308F938E010F5F1F4F1F930F930E94DE0158
S11302400E945F0062E081E00E947C00C8010E947D
S11302509D002FE38DE093E0215080409040E1F732
S113026000C0000080917600909177000F900F906D
S11302700F900F900F900F90039709F0789480E6F9
S113028082BF95B381E0892785BB809176009091E8
S11302907700019790937700809376000F900F90EA
S11302A0DF91CF91FF91EF91BF91AF919F918F918A
S11302B07F916F915F914F913F912F911F910F917A
S11302C00F900FBE0F901F9018951F920F920FB6AC
S11302D00F9211240F931F932F933F934F935F9388
S11302E06F937F938F939F93AF93BF93EF93FF93FA
S11302F0CF93DF9300D0CDB7DEB780917600909195
S11303007700019690937700809376008091760031
S1130310909177009F938F9382E790E09F938F93C0
S11303208E010F5F1F4F1F930F930E94DE010E94E7
S11303305F0062E081E00E947C00C8010E949D0091
S11303402FE38DE093E0215080409040E1F700C01E
S1130350000080917600909177000F900F900F909D
S11303600F900F900F90039709F078948DEF8DBD47
S113037080E88CBD95B382E0892785BB80917600A7
S113038090917700019790937700809376000F9077
S11303900F90DF91CF91FF91EF91BF91AF919F911A
S11303A08F917F916F915F914F913F912F911F9109
S11303B00F910F900FBE0F901F901895AEE0B0E014
S11303C0E4EEF1E00C949F040D891E8986E08C8391
S11303D01A8309838FEF9FE79E838D83AE01475E67
S11303E05F4F6F89788DCE0101960E940002EF81E4
S11303F0F885E00FF11F10822E96E4E00C94BB0404
S1130400ABE0B0E0E6E0F2E00C9491046C017B0117
S11304108A01FC0117821682838181FFCCC1CE013F
S113042001963C01F6019381F70193FD859193FFB9
S113043081917F01882309F4BAC1853239F493FD8F
S1130440859193FF81917F01853229F4B60190E073
S11304500E94F703E7CF912C212C312CFFE1F315F7
S1130460D8F08B3279F038F4803279F08332A1F409
S1130470232D20611DC08D3261F0803369F4232D5A
S1130480216016C0832D8260382EE32DE4603E2E59
S11304902AC0F32DF8601DC037FC2DC020ED280FB5
S11304A02A3040F08E32B9F436FC81C1232D206409
S11304B0322E19C036FE06C08AE0989E200D112403
S11304C0922E11C0EAE02E9E200D1124222EF32D2F
S11304D0F0623F2E08C08C3621F4832D8068382EBC
S11304E002C0883641F4F70193FD859193FF819111
S11304F07F018111B3CF982F9F7D9554933028F4B9
S11305000C5F1F4F9FE399830DC0833631F083370F
S113051071F0833509F059C021C0F80180818983C5
S11305200E5F1F4F88248394912C530113C028011C
S1130530F2E04F0E511CF801A080B18036FE03C0DA
S1130540692D70E002C06FEF7FEFC5010E94EC03DC
S11305504C018201F32DFF773F2E16C0280122E0C3
S1130560420E511CF801A080B18036FE03C0692DF3
S113057070E002C06FEF7FEFC5010E94E1034C0100
S1130580F32DF0683F2E820133FC1BC0822D90E0D6
S113059088169906B0F4B60180E290E00E94F70351
S11305A02A94F4CFF50137FC859137FE81915F01E0
S11305B0B60190E00E94F70321102A9421E0821AE8
S11305C091088114910471F7E8C0843611F08936DA
S11305D041F5F80137FE07C0608171818281938102
S11305E00C5F1F4F08C060817181072E000C880BBF
S11305F0990B0E5F1F4FF32DFF763F2E97FF09C017
S113060090958095709561957F4F8F4F9F4FF068BF
S11306103F2E2AE030E0A3010E943304882E86187E
S113062045C0853731F4232D2F7EB22E2AE030E0E9
S113063025C0932D997FB92E8F36C1F018F48835D3
S113064079F0B5C0803719F0883721F0B0C0E92FB0
S1130650E061BE2EB4FE0DC0FB2DF460BF2E09C0B8
S113066034FE0AC0292F2660B22E06C028E030E0EE
S113067005C020E130E002C020E132E0F801B7FE1D
S113068007C060817181828193810C5F1F4F06C016
S11306906081718180E090E00E5F1F4FA3010E9492
S11306A03304882E8618FB2DFF773F2E36FE0DC0AF
S11306B0232D2E7FA22E891458F434FE0BC032FC55
S11306C009C0832D8E7EA82E05C0B82CA32C03C090
S11306D0B82C01C0B92CA4FE0FC0FE01E80DF11D19
S11306E08081803321F49A2D997EA92E09C0A2FE1F
S11306F006C0B394B39404C08A2D867809F0B394E9
S1130700A3FC11C0A0FE06C0B21488F4280C922CDD
S11307109B180EC0B21460F4B60180E290E00E940F
S1130720F703B394F7CFB21418F42B1802C0982C23
S1130730212CA4FE10C0B60180E390E00E94F703D0
S1130740A2FE17C0A1FC03C088E790E002C088E5C0
S113075090E0B6010CC08A2D867859F0A1FE02C043
S11307608BE201C080E2A7FC8DE2B60190E00E941A
S1130770F703891438F4B60180E390E00E94F7038C
S11307809A94F7CF8A94F301E80DF11D8081B601A4
S113079090E00E94F7038110F5CF222009F442CEA5
S11307A0B60180E290E00E94F7032A94F6CFF601A6
S11307B08681978102C08FEF9FEF2B96E2E10C9424
S11307C0AD04FC010590615070400110D8F780958C
S11307D090958E0F9F1F0895FC0161507040019009
S11307E00110D8F7809590958E0F9F1F08950F9351
S11307F01F93CF93DF93FB01238121FD03C08FEF70
S11308009FEF2CC022FF16C0468157812481358179
S11308104217530744F4A081B1819D012F5F3F4FDC
S1130820318320838C93268137812F5F3F4F378319
S1130830268314C08B01EC01FB010084F185E02DBB
S11308400995892BE1F6D80116968D919C911797FD
S1130850019617969C938E931697CE01DF91CF91B4
S11308601F910F910895FA01AA27283051F12031E0
S113087081F1E8946F936E7F6E5F7F4F8F4F9F4F30
S1130880AF4FB1E03ED0B4E03CD0670F781F891F72
S11308909A1FA11D680F791F8A1F911DA11D6A0F40
S11308A0711D811D911DA11D20D009F468943F91F3
S11308B02AE0269F11243019305D3193DEF6CF01F2
S11308C00895462F4770405D4193B3E00FD0C9F7B8
S11308D0F6CF462F4F70405D4A3318F0495D31FD25
S11308E04052419302D0A9F7EACFB4E0A695979578
S11308F0879577956795BA95C9F70097610571054E
S113090008959B01AC010A2E069457954795379597
S11309102795BA95C9F7620F731F841F951FA01DF1
S113092008952F923F924F925F926F927F928F928F
S11309309F92AF92BF92CF92DF92EF92FF920F936A
S11309401F93CF93DF93CDB7DEB7CA1BDB0B0FB674
S1130950F894DEBF0FBECDBF09942A883988488831
S11309605F846E847D848C849B84AA84B984C884C7
S1130970DF80EE80FD800C811B81AA81B981CE0FBE
S1130980D11D0FB6F894DEBF0FBECDBFED010895A3
S1070990F894FFCF05
S1130994696E206D61696E00696E206D61696E20F7
S10909A43200256400008E
S9030000FC
