S00D00004857355F342E73726563B0
S11300000C942A000C9434000C9434000C943400A6
S11300100C9434000C9434000C9434000C9434008C
S11300200C9434000C9434000C9434000C9443006D
S11300300C9434000C9434000C9434000C9434006C
S11300400C9434000C9434000C9434000C9434005C
S11300500C94340011241FBECFE5D8E0DEBFCDBF21
S11300600E9436000C9457000C940000BD9A80EE58
S113007082BF81E083BF89BF789414BA8FEF81BBBC
S113008083B382BBFDCF1F920F920FB60F92112440
S11300908F939F9380EE82BF98B380E2892788BBB9
S11300A09F918F910F900FBE0F901F901895F89409
S10500B0FFCF7C
S9030000FC
